:100000000C943A000C9457000C9457000C94570031
:100010000C9457000C9457000C9457000C94570004
:100020000C9457000C9457000C9457000C945700F4
:100030000C9457000C9457000C9457000C945700E4
:100040000C9457000C9457000C9457000C945700D4
:100050000C9457000C9457000C9457000C945700C4
:100060000C9457000C9457000C9457000C945700B4
:100070000C94570011241FBECFEFD4E0DEBFCDBFDC
:1000800013E0A0E0B1E0E0E2FFE002C005900D92D5
:10009000A638B107D9F723E0A6E8B3E001C01D9266
:1000A000A23AB207E1F70E9442060C948E070C9424
:1000B0000000EF92FF921F93CF93DF93162FE091F2
:1000C0008603F0E0EE0FFF1FEC5AFE4F20813181D6
:1000D000F901FF2795A1932B95A360938603D0E0A8
:1000E000C0E0E82EF12CC7010C2E02C09595879533
:1000F0000A94E2F780FF05C06C2F812F9C2F0E948D
:10010000D2012196C730D10571F7DF91CF911F91B0
:10011000FF90EF9008950E948F030E94EC000E94D0
:10012000B1030E942A0680E00E94FC058823A9F3FF
:1001300008959C01FC01FF2784A1832B84A385A142
:10014000832B85A381E00895E1E6F0E080E88083D9
:100150001082A89584B7877F84BFE0E6F0E08081B5
:1001600088618083108208951092800084E08093DB
:10017000810010928500109284000895809184007F
:100180009091850008959C01809184009091850054
:10019000AC01421B530B483E5340B0F708952091E9
:1001A000840030918500820F931F0C94C300CF937D
:1001B000DF93EC010E94B4009E0150E040E062E158
:1001C0007AE780E090E00E943E0730938A03209314
:1001D0008903DF91CF9108958091870390918803DF
:1001E0000E94C30080918703909188032091890326
:1001F00030918A03820F931F909388038093870323
:1002000008959C0163307105A1F040F461307105DF
:10021000E1F06230710511F180E0089564307105FC
:10022000D9F7F901FF2784A1832B84A385A1832B10
:1002300009C0F901FF2784A1832B84A395A1832FF3
:100240008095892385A381E00895F901FF2794A172
:10025000832F8095982394A395A1F3CFF901FF27CD
:1002600094A1832F80958923E0CFE82FF0E0EE0F53
:10027000FF1FE557FC4F8081882329F0818191E0A1
:1002800089278170089580E0FCCFE82FF0E0EE0F21
:10029000FF1FE557FC4F8081811103C08181817070
:1002A000089580E0FCCFE82FF0E0EE0FFF1FE55748
:1002B000FC4F80810895E82FF0E0EE0FFF1FE55717
:1002C000FC4F908181E0892708957F928F929F92C1
:1002D000AF92BF92CF92DF92EF92FF920F931F9354
:1002E000CF93DF93CBE8D3E05EE4C52E53E0D52E69
:1002F00066E0762E88818983F601019111916F0164
:100300005801BB24F50124A1E12EFF2485A190E032
:100310008E219F2130E02E213F21232BB1F133E0AC
:10032000832E912C892B19F094E0892E912C64E076
:1003300070E0C8010E94010162E070E0C8010E9403
:100340000101872D8A95F1F7F50183A190E0E8225C
:10035000F92281E0EF2809F080E08883B401C80128
:100360000E9401012296F3E0C539DF0719F6DF91FB
:10037000CF911F910F91FF90EF90DF90CF90BF90A2
:10038000AF909F908F907F90089588248394912CB4
:10039000892B69F282E0882E912CC9CF0895692FAC
:1003A0000C94980441E0611101C040E0692F0C9465
:1003B00082040C94D2015F926F927F928F929F92EF
:1003C000AF92BF92CF92DF92EF92FF920F931F9363
:1003D000CF93DF93862E772E942E682E592EB62E2D
:1003E000A72E062E000C770BE82F082E000CFF0B13
:1003F0008B010E1B1F0B272D072C000C330B492FD5
:10040000092E000C550BE901C41BD50B17FF59C071
:10041000DD24DA94D7FD02C0DD24D3948F01061BBE
:10042000170BCC24CA94D7FF03C0EA01C21BD30B1D
:100430000C171D076CF1780117FF03C08FEFE81A46
:10044000F80AF594E794A92E681014C0692D8B2D35
:100450009A2DDF91CF911F910F91FF90EF90DF9038
:10046000CF90BF90AF909F908F907F906F905F9054
:100470000C94D201692D862D9A2D0E94D201EC1A7E
:10048000FD0AF7FE03C0E00EF11EAD0C6C0CDCCFD4
:100490007E01D7FF03C09FEFE91AF90AF594E794AC
:1004A000B82E571499F2692D8B2D952D0E94D201EB
:1004B000E01AF10AF7FE03C0EC0EFD1EBC0C5D0C49
:1004C000F0CFCC24C394DD24DA94D7FDAECFDD2465
:1004D000D394AECFFF920F931F93CF93DF93D82F78
:1004E000F92E162FC72F042F792F0E94DB01402FE2
:1004F0006D2F7C2F8D2F9F2D0E94DB01402F612FB0
:100500007C2F812F9F2D0E94DB01402F612F7C2F9C
:100510008D2F9C2FDF91CF911F910F91FF900C9405
:10052000DB010E94C004E0E0F1E0118A1486089526
:10053000DF92EF92FF920F931F93CF93DF93D82E0A
:100540007B01C62F0F2D8091020190910301D0E015
:10055000019751F1CE2DCD0FE0910801F0910901E5
:100560008181D81708F45CC0D0E0E0910801F091D7
:1005700009018281D81708F455C0CF5F27C0212F09
:100580004D2F6D2D0E944E04682F8E2D810F902FC0
:100590000E94D2011F5F8091080190910901FC0126
:1005A0002281121760F3DF5F0F2D0D1BE091080110
:1005B000F09109018181D81798F0D0E0E09108010D
:1005C000F09109018281D81768F001508C2F902F8B
:1005D000DF91CF911F910F91FF90EF90DF900895E1
:1005E00010E0D9CF60E08E2D8D0F902F0E94D201A8
:1005F000DF5FE4CF212F4D2F6D2D0E944E04682F19
:100600008C2F9F2D910F0E94D2011F5F80910801B6
:1006100090910901FC012281121760F3DF5F9ACFEC
:1006200010E0F4CF60E08C2F9F2D9D0F0E94D2012F
:10063000DF5F9BCF1F93CF93DF93EC0110E0899195
:10064000882341F00E949802BC011F5F853014F49A
:1006500077FFF5CF812FDF91CF911F9108950F93F1
:100660001F93CF93DF93EC01362F272F10920C01AD
:1006700040930D01109210010091080110910901A1
:100680000115110509F446C0F80181816091060148
:100690007091070190E00E941907BC0180910A0146
:1006A00090910B010E942A07CB016AE070E00E9442
:1006B000190790930F0180930E013093040120934A
:1006C000050140E250E0BE0181E191E00E947F0718
:1006D00080910001909101010197E1F4FE010190E8
:1006E0000020E9F73197BF016C1B7D0BF801818178
:1006F0008F5F0E9410078150209102013091030109
:1007000095E02130310509F497E0981718F48EEF41
:1007100080931001DF91CF911F910F910895209147
:1007200002013091030170E02130310509F476E0D7
:100730004FEF60E00C942F0390E0909307018093BB
:10074000060108959093010180930001089590930C
:100750000301809302010895909309018093080199
:100760000895809195039091960301969093960336
:100770008093950320910E0130910F01821793070A
:1007800008F441C01092960310929503E0910C0179
:10079000F0E0E050FF4F8189811109C080910D0187
:1007A000823088F1815080930D0110920C0180916C
:1007B0000C0190E0FC01E050FF4F2189222319F148
:1007C0004091000150910101209110014115510506
:1007D000E1F04130510551F1809110018F5F80931C
:1007E0001001082E000C990BE0910801F09109010D
:1007F0002181281719063CF41092100180910C01F8
:100800008F5F80930C010C94AC042111E5CF6091B3
:100810000401709105018F5E9E4F0E941A03909112
:100820000C019150980F90930C01D6CF6091040168
:100830007091050140910201509103014130510531
:1008400031F4720F8F5E9E4F0E941A03C5CF621B58
:10085000F9CFCF93DF93C0E0D1E09B878A870E94D6
:10086000C80484E190E09F838E83DF91CF910C9444
:100870009102FC01892B81F08381681B67FD09C00F
:10088000062E000C770B948181E09617170609F06D
:100890000CF480E08170089580E00895FC01A62F9B
:1008A000622F892B69F18181481750F592812917B0
:1008B00038F59381A91BA7FD23C00A2E000CBB0BA2
:1008C00094819A171B06E1F0DCF00E941007480F94
:1008D000858190E0BD010E9419079C01942F969597
:1008E00096959695E20FF31FE90FF11D868190E032
:1008F000477002C0959587954A95E2F781700895F3
:1009000080E00895853098F4673088F421E030E085
:1009100001C0220F6A95EAF7E82FF0E0E856FC4F95
:10092000822F8095908189234111822B80830895A5
:10093000853080F4673070F4E82FF0E0E856FC4F23
:1009400081E090E001C0880F6A95EAF790819823D2
:1009500081E009F480E0089560919703E62FF0E0CC
:10096000E856FC4F80810E94F904809197038F5FC5
:10097000853018F480939703089510929703089593
:10098000E8E9F3E010821182128213821482089542
:100990000E94D7040C94C0049C01FC01FF2784A191
:1009A000832B84A385A1832B85A381E00895CF9316
:1009B000DF93C2E6D3E0899199910E94CC0483E051
:1009C000C037D807C1F783E090E40E94CC0480E0F0
:1009D00090E80E94CC0483E090E10E94CC0483E084
:1009E00090E80E94CC0483E090E2DF91CF910C94D8
:1009F000CC04E0919D03F0E0EE0FFF1FE85AFC4F9E
:100A000020813181F901FF2795A1932B95A3A2E6BF
:100A1000B3E040E753E02D913D91F901FF2780FFBE
:100A20001BC025A1932F9095922395A386954A17D5
:100A30005B0789F7E62FF0E0EE0FFF1FE85AFC4F47
:100A400020813181F901FF2795A1832F809589238A
:100A500085A360939D03089595A1932BE6CFFC0198
:100A6000608341830895FC0160913101808191810F
:100A70000E94D2010E94B10380919E0390919F0336
:100A8000019690939F0380939E038536910558F0BD
:100A900081E090913101911180E0809331011092B9
:100AA0009F0310929E030895CF93DF93EC0180E0A3
:100AB0000E943501882391F06981615088810E94EC
:100AC0009804998119160CF051C0811152C060E050
:100AD00088810E94D20189818150898382E00E94AD
:100AE0003501882391F069816F5F88810E949804A5
:100AF000998196300CF044C0811144C060E0888137
:100B00000E94D20189818F5F898381E00E94350133
:100B1000882391F0888169818F5F0E949804982FC3
:100B200088818430B4F5911136C060E099810E94CB
:100B3000D20188818F5F888383E00E9435018823FA
:100B400091F08881698181500E949804982F888152
:100B500018164CF5911129C060E099810E94D201CC
:100B6000888181508883DF91CF910895882309F48B
:100B7000B5CF60E088810E94D201188286E0ADCFB7
:100B8000882319F260E088810E94D201188286E0F1
:100B9000BBCF992389F260E099810E94D20118822B
:100BA00086E08983C9CF9923F1F260E099810E94A0
:100BB000D201188286E08983D6CFFB0192E0882398
:100BC00051F0813031F091E0823029F090E080E006
:100BD00002C096E084E02081022E000C330B8217C5
:100BE000130641F42181022E000C330B81E0921791
:100BF000130609F080E0089581110CC08091A003D4
:100C0000882331F08091A10391E0892781700895B4
:100C100080E0FCCF80E0089581110AC08091A0039C
:100C2000811104C08091A1038170089580E0FCCF00
:100C300080E00895811103C08091A003089580E0B1
:100C40000895811105C08091A00391E0892708953E
:100C500080E00895E0EAF3E08081818389B1881F14
:100C60008827881F8083089557985F980895811179
:100C700005C0662311F0429A0895429808953A9A61
:100C8000429A089500D0CDB7DEB70E94A40083E059
:100C900090E40E94990080E090E80E94990083E02F
:100CA00090E10E94990083E090E80E94990083E01F
:100CB00090E20E94990080E090E40E94990080E018
:100CC00090E20E94990080E090E10E94990080E00B
:100CD00098E00E94990080E094E00E94990080E0F2
:100CE00092E00E94990080E091E00E94990084EFD8
:100CF00091E00E94D7000E9434060E94CE0184EF4A
:100D000091E00E9429048EE591E00E94AC038FE0FF
:100D10000E949C0381E090E00E94A2030E943F0693
:100D200082E391E00E948B000E949102F12C86E008
:100D3000E82EF1105EC041E060E070E080E793E0F3
:100D40000E942F0309EE13E00E94EC000E94B10301
:100D50000E942A0680E00E94FC05811103C0015018
:100D6000110991F70E9491021982EA8246E060E03F
:100D7000CE0101960E942F050E94EC00CE01019643
:100D80000E943305CE0101960E9454050E94B103D2
:100D900010E000E0F11039C0602FF801E75BFC4F74
:100DA00080810E9459000F5F1F4F0530110591F798
:100DB0000E94B1030E946501BE016F5F7F4F8F2DBE
:100DC0000E94DD058823C1F20E94B1030E949102B6
:100DD000F39483E0F812ADCF89E793E00E948B0093
:100DE0000E9491020E94B10390E080E00F900F906A
:100DF000089581E041E060E070E0F81203C083E70D
:100E000093E09ECF86E793E09BCF81E0602FF801CF
:100E1000F81203C0EC5BFC4FC3CFE15CFC4FC0CFCA
:100E2000002480FD060E660F11F08695D1F7802D07
:100E300008950024552704C0080E591F880F991FD4
:100E4000009729F076956795B8F37105B9F7802D6D
:100E5000952F0895AA1BBB1B51E107C0AA1FBB1FFA
:100E6000A617B70710F0A61BB70B881F991F5A9536
:100E7000A9F780959095BC01CD010895052E97FBAB
:100E80001EF400940E94550757FD07D00E945D078D
:100E900007FC03D04EF40C945507509540953095BF
:100EA00021953F4F4F4F5F4F0895909580957095D6
:100EB00061957F4F8F4F9F4F0895A1E21A2EAA1B75
:100EC000BB1BFD010DC0AA1FBB1FEE1FFF1FA217FA
:100ED000B307E407F50720F0A21BB30BE40BF50BF7
:100EE000661F771F881F991F1A9469F76095709580
:100EF000809590959B01AC01BD01CF010895FB0148
:100F0000DC014150504048F001900D920020C9F79B
:100F100001C01D9241505040E0F70895F894FFCF72
:100F200000000000000014000000000000000000AD
:100F300000000000000000000000000000000000B1
:100F400000000000000000000000000000000000A1
:100F500000014D617A652047616D652120507573F0
:100F60006820627574746F6E20746F207374617280
:100F7000742E00000340008003100380032001054D
:100F800007205F050000000000C6186380014A29A1
:100F90000000004A7DF59502C417471F0163222215
:100FA000320626155193058608000000880821089E
:100FB000028220848800805457090080904F0800E6
:100FC000000060880000800F00000000008C01001D
:100FD000222202002EE63AA303C4104288032E42C6
:100FE00044C4072E4207A30388A9F411023F8407D3
:100FF000A3032E8617A3033F424408012E4617A3DE
:10100000032E460FA303C018600C00C018608800B0
:101010008888200802007CF0010082208888002E49
:10102000424400012E425BAB0344C51F63042FC63C
:1010300017E3032E8610A2032FC618E3033F84177D
:10104000C2073F841742002E861EA30731C61F63C6
:10105000048E10428803104218A3033195515204A4
:10106000218410C20771D71A630471D61C63042E41
:10107000C618A3032FC61742002EC65893052FC6C5
:101080001763042E0607A3039F1042080131C618F8
:10109000A30331C618150131C65AAB02312AA26228
:1010A00004312A4208011F2222C207278410C201EC
:1010B00020088220000E2184900344450000000097
:1010C0000000C00782200000000038E8A30721B418
:1010D00019E30300B810A20310DA1CA30700B8F844
:1010E00083034C8A238400C0C7E8A10321B4196399
:1010F000040418428803083084920121A4324A0271
:10110000861042880300AC5A630400B419630400DB
:10111000B818A30300BCF8420000D8EC210400B4C6
:1011200019420000B8E0E003421C21240300C41867
:10113000B30500C418150100C45AAB02004445545D
:101140000400C4E8A103007C44C4078810410802DD
:101150008410420801821044880000888A00001D23
:1011600046744670007E425610086E083B020380AB
:10117000034003200080031003400080031003801D
:1011800003200040002000100008000400020001BD
:101190004C31004C32004C330047616D65204F7676
:0611A0006572210A000047
:00000001FF
